S0180000417474696E7938355F575332383132422E737265630E
S11300000EC028C066C126C025C024C023C022C09B
S113001021C020C01FC01EC01DC01CC01BC0112495
S11300201FBECFE5D2E0DEBFCDBF10E0A0E6B0E05A
S1130030E2E8F3E102C005900D92A03BB107D9F7C5
S113004021E0A0EBB0E001C01D92AF3EB207E1F7A2
S1130050C7D595C9D5CFB99A28B32D7F38B33260A7
S11300604FB7F89461157105B1F0FC01680F791F61
S1130070919188E038BB000000C097FF28BB990F1E
S1130080000000C000C000C028BB00C08A9591F7E2
S1130090E617F70769F74FBF08952F923F924F92E3
S11300A05F926F927F928F929F92AF92BF92CF9204
S11300B0DF92EF92FF920F931F93CF93DF93C72F9B
S11300C0182F70E080E090E0F2D62B013C016C2FF9
S11300D070E080E090E0EBD64B015C01012F612FD2
S11300E070E080E090E0E3D66B017C0120E030E03A
S11300F04FE753E4C501B40141D64B015C0120E054
S113010030E04CE252E4C301B20138D62B013C0189
S11301100BD79CD6EB01072E000C880B990BC9D684
S11301209B01AC01C301B201C4D52B013C01A50163
S1130130940160E070E080E89FE3BBD5A7019601DD
S113014097D789D6362EA3019201C501B40190D761
S11301509B01AC0160E070E080E89FE3AAD5A701B1
S1130160960186D778D6262EA301920160E070E02E
S113017080E89FE39ED5A50194017AD79B01AC0149
S113018060E070E080E89FE394D5A701960170D702
S113019062D6C230D10579F02CF42097D9F021979A
S11301A039F016C0C330D10559F0249769F010C056
S11301B0612F022D0FC0862F612F032D382E0AC008
S11301C0032D312E622D06C0062F632D312E02C061
S11301D0632D322C702F832DDF91CF911F910F91BE
S11301E0FF90EF90DF90CF90BF90AF909F908F9053
S11301F07F906F905F904F903F902F900895EF9273
S1130200FF920F931F93CF93DF937C0100E010E0E4
S1130210F70130812181F3E0EF0EF11CF7013197F2
S113022080816091E1008FD7E801CC0FDD1FC00F02
S1130230D11FCD51DF4F632F722F2FDF6883798356
S11302408A830F5F1F4F0832110511F768E770E0CA
S113025083EE90E000DFDF91CF911F910F91FF902B
S1130260EF900895CF93DF93A7EAB0E0E5EDF1E0D6
S113027020EF31E08FEF9D91EF0122979883219633
S1130280888380833396E217F307A9F71092EC0171
S1130290E3ECF0E021EE30E08FEFDF0111978C9377
S11302A080833396E217F307C1F7DF91CF91089566
S11302B0E199FECF1FBA8EBB6DBBF894E29AE19A26
S11302C078940895E199FECF1FBA8EBBE09A8DB35E
S11302D008951F920F920FB60F921124BF92CF92DE
S11302E0DF92EF92FF920F931F932F933F934F93BD
S11302F05F936F937F938F939F93AF93BF93CF93AA
S1130300DF93EF93FF938091DF0081119AC082E322
S11303108093DF00B29995C02FEF84E39CE02150D5
S113032080409040E1F700C00000B29B0FC0809174
S1130330E0008F5F853018F48093E00002C01092D3
S1130340E0006091E00086E0B3DF7BC0B2990EC0AC
S11303508091EE018F5F8A3018F48093EE0102C021
S11303601092EE016091EE0185E0A2DFB29960C0C7
S113037006EB10E0BB24BA940F2EFCEBEF2EF0E05A
S1130380FF2EF02D0F2EF3EECF2EF0E0DF2EF02D0A
S1130390CBE5D1E0EFE8F1E03197F1F700C00000E0
S11303A08091EE01E82FF0E0E955FF4F9081F801CC
S11303B09083B182883011F4118206C0893021F40F
S11303C0F7018081F80180836091E10070E080E0B2
S11303D090E06FD59B01AC0160E070E08FE793E49F
S11303E0CDD439D5F80162836091B6007091B7001D
S11303F08091B80052DE6093B3007093B400809390
S1130400B500F70180818F5F8083F6018091B3008E
S11304109091B400A091B50081939193A193EC17AE
S1130420FD07A1F768E770E0C60115DEB29BB2CF05
S1130430FFEF20E782E0F15020408040E1F700C068
S11304400000FF91EF91DF91CF91BF91AF919F9108
S11304508F917F916F915F914F913F912F911F9158
S11304600F91FF90EF90DF90CF90BF900F900FBE51
S11304700F901F901895EDE5F1E065ED71E0482FC0
S113048050E09081292F30E0241B350B12161306FF
S11304901CF4981B908301C010823396E617F7076B
S11304A081F708952091EE01293019F58091BC005F
S11304B09091BD00A091BE008093B9009093BA00C2
S11304C0A093BB0028C08091B9009091BA00A0917C
S11304D0BB0081939193A193E217F307A1F78FE9EE
S11304E09FE00197F1F700C000008BE591E087DE03
S11304F00895822F90E0820F911D820F911DFC01BF
S1130500ED52FE4F80819181A2818093B900909336
S1130510BA00A093BB00EBE5F1E023ED31E0D3CFCB
S11305208F929F92AF92BF92EF92FF920F931F937D
S1130530CF93DF930BE511E0C0E0D0E00F2EF9EB91
S1130540EF2EF0E0FF2EF02D6091BC009091BD00E5
S11305508091BE006093B9009093BA008093BB0071
S113056070E080E090E0A5D44B015C01BE010D2E4B
S1130570000C880B990B9DD420E030E04CEC50E447
S113058077D59B01AC01C501B40194D364D4F701C0
S113059060838091B9009091BA00A091BB00F801EA
S11305A081939193A1938F012196C832D10561F66D
S11305B08FE99FE00197F1F700C000008BE591E01F
S11305C01EDEDF91CF911F910F91FF90EF90BF90AE
S11305D0AF909F908F900895CF93DF93A8E7B0E0FA
S11305E0EBE5F1E063ED71E0C9EBD0E02091BC00F4
S11305F03091BD004091BE002093B9003093BA0001
S11306004093BB008D918823A9F1813021F4888126
S1130610805F88832FC0823021F48881805E888344
S113062029C0833021F48881805D888323C084308D
S113063021F48881805C88831DC0853021F4888101
S1130640805B888317C0863021F48881805A888330
S113065011C0873021F48881805988830BC0883089
S113066021F488818058888305C0893019F48881F1
S1130670805788832091B9003091BA004091BB0023
S1130680219331934193E617F70709F0AFCF8FE930
S11306909FE00197F1F700C000008BE591E0AFDD2A
S11306A0DF91CF9108958091EE0180FD02C038DF83
S11306B0089592DF0895CF92DF92EF92CF93DF9364
S11306C08091BC006FE03FD5911112C08091B100C0
S11306D08F5F843118F48093B10002C01092B1008E
S11306E0E091B100F0E0EC59FF4F80818093B000BD
S11306F02091EE01293099F0822F90E0820F911D14
S1130700820F911DFC01ED52FE4F80819181A281E7
S11307108093B9009093BA00A093BB000CC0809161
S1130720BC009091BD00A091BE008093B90090934D
S1130730BA00A093BB00E1ECF0E0158210861386AA
S11307401686118A148A178A128E158E8091B0002B
S113075081110DC08091B9009091BA00A091BB00A5
S11307608093C1009093C200A093C3006FC18130F5
S113077079F4E1ECF0E08091B9009091BA00A09195
S1130780BB0080839183A28383839483A5835EC10A
S1130790823091F4E1ECF0E08091B9009091BA00DC
S11307A0A091BB0080839183A28383839483A583D8
S11307B086839783A0874AC18330A9F4E1ECF0E0F3
S11307C08091B9009091BA00A091BB00808391837D
S11307D0A28383839483A58386839783A087818759
S11307E09287A38733C18430C1F4E1ECF0E08091B7
S11307F0B9009091BA00A091BB0080839183A28339
S113080083839483A58386839783A0878187928734
S1130810A38784879587A68719C18530D9F4E1EC2D
S1130820F0E08091B9009091BA00A091BB00808360
S11308309183A28383839483A58386839783A087EC
S113084081879287A38784879587A6878787908BDC
S1130850A18BFCC08630F1F4E1ECF0E08091B900AA
S11308609091BA00A091BB0080839183A28383837B
S11308709483A58386839783A08781879287A387A0
S113088084879587A6878787908BA18B828B938B90
S1130890A48BDCC0873009F5E1ECF0E08091B9006D
S11308A09091BA00A091BB0080839183A28383833B
S11308B09483A58386839783A08781879287A38760
S11308C084879587A6878787908BA18B828B938B50
S11308D0A48B858B968BA78BB9C0883021F5E1EC6E
S11308E0F0E08091B9009091BA00A091BB008083A0
S11308F09183A28383839483A58386839783A0872C
S113090081879287A38784879587A6878787908B1B
S1130910A18B828B938BA48B858B968BA78B808FDB
S1130920918FA28F93C0893009F090C0E1ECF0E080
S11309308091B9009091BA00A091BB00808391830B
S1130940A28383839483A58386839783A0878187E7
S11309509287A38784879587A6878787908BA18BA7
S1130960828B938BA48B858B968BA78B808F918F97
S1130970A28F838F948FA58F69C08D91811107C039
S1130980C880D980EA80C082D182E28250C081309E
S113099039F4CB80DC80ED80C082D182E28247C012
S11309A0823039F4CE80DF80E884C082D182E28252
S11309B03EC0833039F4C984DA84EB84C082D182A6
S11309C0E28235C0843039F4CC84DD84EE84C08284
S11309D0D182E2822CC0853039F4CF84D888E9886A
S11309E0C082D182E28223C0863039F4CA88DB888F
S11309F0EC88C082D182E2821AC0873039F4CD8873
S1130A00DE88EF88C082D182E28211C0883039F456
S1130A10C88CD98CEA8CC082D182E28208C0893029
S1130A2031F4CB8CDC8CED8CC082D182E2823396A3
S1130A30E217F30709F0A1CF8FE99FE00197F1F7DF
S1130A4000C000008BE591E0DADB09C0A8E7B0E064
S1130A50EBE5F1E023ED31E0C1ECD0E08ECFDF91A6
S1130A60CF91EF90DF90CF9008958091BC0065E026
S1130A706AD391110AC08091B2008F5F893218F451
S1130A808093B20002C01092B2002091EE0129308E
S1130A9099F0822F90E0820F911D820F911DFC012D
S1130AA0ED52FE4F80819181A2818093B900909391
S1130AB0BA00A093BB000CC08091BC009091BD0013
S1130AC0A091BE008093B9009093BA00A093BB009C
S1130AD082E0D1DC2091B200822F90E0820F911D40
S1130AE0820F911DFC01E55AFE4F2091B90030910F
S1130AF0BA004091BB002083318342838BE591E0AF
S1130B007EDB0895CF936CD3BC017727072E000CAE
S1130B10880B990BCED12DEC3CEC4CEC50E42ED14F
S1130B209AD16093BF005CD3992795958795959545
S1130B308795959587958093C00052D3C82F90913F
S1130B40B2009F5F953018F49093B20002C01092E7
S1130B50B20082E090DC8FE99FE00197F1F700C0DA
S1130B6000008091B200811136C02091BF0030E0B6
S1130B708091EE014091C000F901EE0FFF1FE20FDA
S1130B80F31FE55AFE4F50EF540FA82FB0E0A955BC
S1130B90BF4F9C91950F9083C1839FEF92838830C0
S1130BA051F4F901EE0FFF1F2E0F3F1FF901E55A13
S1130BB0FE4F118210C0893071F4F901EE0FFF1F4E
S1130BC02E0F3F1FF901E55AFE4F8091BC00480FDC
S1130BD040514083C1838BE591E011DBCF910895AF
S1130BE08BB780628BBFAA9A789498B384E08927E4
S1130BF088BB84E067DB8093E200863010F01092BB
S1130C00E20086E05FDB8093E000893010F0109210
S1130C10E00085E057DB8093EE018B3010F01092FA
S1130C20EE01B2990DC08091E2008F5F8093E200E3
S1130C30863010F01092E2006091E20084E038DB2C
S1130C40E091E200F0E0E056FF4F80818093E10004
S1130C50B99A08DBECEBF0E010828FEF818382839A
S1130C60EF018091DF00882319F081508093DF0029
S1130C7088818F5F8F3F11F0888301C01882809133
S1130C80E000811101C00EDC8091E000813009F4A4
S1130C900ADD8091E000823009F40DDD8091E000EE
S1130CA0833009F4E2DE8091E0008430D1F62ADF5B
S1130CB0D8CF5058BB27AA270ED089C17AD130F09B
S1130CC07FD120F031F49F3F11F41EF46FC10EF474
S1130CD0E095E7FB3CC1E92F8BD180F3BA1762079B
S1130CE073078407950718F071F49EF5BAC10EF4E2
S1130CF0E0950B2EBA2FA02D0B01B90190010C0128
S1130D00CA01A0011124FF27591B99F0593F50F43F
S1130D10503E68F11A16F040A22F232F342F442797
S1130D20585FF3CF469537952795A795F04053958F
S1130D30C9F77EF41F16BA0B620B730B840BBAF05F
S1130D409150A1F0FF0FBB1F661F771F881FC2F7CA
S1130D500EC0BA0F621F731F841F48F487957795DE
S1130D606795B795F7959E3F08F0B3CF9395880F95
S1130D7008F09927EE0F9795879508950CD027C111
S1130D801FD140F016D130F021F45F3F19F0DFC0DD
S1130D90511168C10BC12CD198F39923C9F3552380
S1130DA0B1F3951B550BBB27AA276217730784075A
S1130DB038F09F5F5F4F220F331F441FAA1FA9F310
S1130DC033D00E2E3AF0E0E830D091505040E69502
S1130DD0001CCAF729D0FE2F27D0660F771F881F63
S1130DE0BB1F261737074807AB07B0E809F0BB0B52
S1130DF0802DBF01FF2793585F4F2AF09E3F510576
S1130E0068F0A5C02FC15F3FECF3983EDCF38695F4
S1130E1077956795B795F7959F5FC9F7880F911DEB
S1130E209695879597F90895E1E0660F771F881FD7
S1130E30BB1F621773078407BA0720F0621B730B8A
S1130E40840BBA0BEE1F88F7E095089504D06894DC
S1130E50B11108C10895D4D088F09F5790F0B92FEC
S1130E609927B751A0F0D1F0660F771F881F991FFB
S1130E701AF0BA95C9F712C0B13081F0F2D0B1E0DE
S1130E800895EFC0672F782F8827B85F39F0B93FEE
S1130E90CCF3869577956795B395D9F73EF49095FD
S1130EA08095709561957F4F8F4F9F4F0895E8947B
S1130EB009C097FB3EF490958095709561957F4F9E
S1130EC08F4F9F4F9923A9F0F92F96E9BB2793954C
S1130ED0F695879577956795B795F111F8CFFAF45C
S1130EE0BB0F11F460FF1BC06F5F7F4F8F4F9F4F8D
S1130EF016C0882311F096E911C0772321F09EE8EB
S1130F00872F762F05C0662371F096E8862F70E050
S1130F1060E02AF09A95660F771F881FDAF7880F2A
S1130F209695879597F9089585D080F09F3740F47A
S1130F3091110EF097C060E070E080E89FEB089597
S1130F4026F41B16611D711D811D07C021C097F970
S1130F509F6780E870E060E00895882371F4772348
S1130F6021F09850872B762F07C0662311F4992718
S1130F700DC09051862B70E060E02AF09A95660FC0
S1130F80771F881FDAF7880F9695879597F9089544
S1130F909F3F31F0915020F4879577956795B795E9
S1130FA0880F911D9695879597F908959FEF80EC8A
S1130FB0089500240A9416161706180609060895BB
S1130FC000240A9412161306140605060895092E21
S1130FD00394000C11F4882352F0BB0F40F4BF2B90
S1130FE011F460FF04C06F5F7F4F8F4F9F4F0895D0
S1130FF057FD9058440F551F59F05F3F71F04795C6
S1131000880F97FB991F61F09F3F79F087950895AA
S1131010121613061406551FF2CF4695F1DF08C0C9
S1131020161617061806991FF1CF869571056105E6
S113103008940895E5DFA0F0BEE7B91788F4BB274C
S11310409F3860F41616B11D672F782F8827985F94
S1131050F7CF869577956795B11D93959639C8F323
S11310600895E894BB2766277727CB0197F908955D
S11310700AD0ADCF9EDF28F0A3DF18F0952309F046
S113108066CF94CFEFCFB4DFA8F39923D9F35523D8
S1131090C9F3950F50E0551FAA27EE27FF27BB275A
S11310A000240894679520F4E20FF31FB41F0A1E6E
S11310B0220F331F441FAA1F6695A9F7779530F4B2
S11310C0F30FB41F0A1E121E08F46395330F441F56
S11310D0AA1F221F769599F7879520F4B40F0A1E4C
S11310E0121E631F440FAA1F221F331F8695A9F7E0
S11310F0862F712D602D11249F5750408AF0E1F006
S113110088234AF0EE0FFF1FBB1F661F771F881F3F
S113111091505040A9F79E3F510570F018CFA2CFCF
S11311205F3FECF3983EDCF3869577956795B7952A
S1131130F795E7959F5FC1F7FE2B880F911D969554
S1131140879597F90895991B79E004C0991F96171C
S113115008F0961B881F7A95C9F780950895A0E03A
S1131160B0E0E4EBF8E08AC0EC01688179818A811F
S11311709B81611571058105910521F464E279ED86
S11311808BE597E02DE133EF41E050E038D04901A1
S11311905A0127EA31E440E050E04DD069017A0178
S11311A0C501B4012CEE34EF4FEF5FEF44D0022FB2
S11311B0132F9A01D701C601800F911FA21FB31FDD
S11311C0B7FF03C00197A109B04888839983AA8314
S11311D0BB839F77CDB7DEB7ECE06CC0C0DF08956A
S11311E080E690E0BCDF0895A0E0B0E0809360006A
S11311F090936100A0936200B09363000895052E5C
S113120097FB16F400940FD057FD05D068D007FC67
S113121002D046F408C050954095309521953F4F33
S11312204F4F5F4F089590958095709561957F4FCE
S11312308F4F9F4F089568940013E894A0E0B0E0A6
S1131240E3E2F9E01DC0EFEFE7F959016A015E231B
S1131250550FEE08FE2C87019B01AC019E23990FCC
S1131260660B762FCB015DD0CDB7DEB7EAE024C0A4
S11312702F923F924F925F926F927F928F929F92A2
S1131280AF92BF92CF92DF92EF92FF920F931F9390
S1131290CF93DF93CDB7DEB7CA1BDB0B0FB6F89441
S11312A0DEBF0FBECDBF09942A88398848885F8481
S11312B06E847D848C849B84AA84B984C884DF80F2
S11312C0EE80FD800C811B81AA81B981CE0FD11DD6
S11312D00FB6F894DEBF0FBECDBFED010895A1E2B5
S11312E01A2EAA1BBB1BFD010DC0AA1FBB1FEE1F9C
S11312F0FF1FA217B307E407F50720F0A21BB30BE7
S1131300E40BF50B661F771F881F991F1A9469F762
S113131060957095809590959B01AC01BD01CF01BE
S11313200895DF93CF939F92A0E49A2E0024D001D6
S1131330E001F00116950795F794E794D794C794C4
S1131340B794A79448F41068A20FB31FC41FD51F05
S1131350E61FF71F081E191E220F331F441F551FB7
S1131360661F771F881F991F9A9421F79D01AE016C
S1131370BF01C00111249F90CF91DF910895F8948B
S1051380FFCF99
S11313820100000000010203040506070809090917
S113139208070605040302010607080909090909E1
S11313A209090908070606070707060504030201D7
S11313B201000000000101020304050607070706F5
S11313C2281E140A05020100152A5580ABD5EAFF2E
S9030000FC
